:020000040000FA
:10000000021386ED24F8FEEFD39E4015ED2408FD83
:10001000E433FCC3EF9DEC6480F874809850028058
:1000200001C3220212F67597A5222202181F7EFF35
:10003000EFD394004022EF9480501DE4FDED75F065
:1000400005A42412F582E4341EF583E493B5070475
:10005000AE0580040DBD07E5AF06220215B4121DE2
:100060002753D87853DBFE121CEBE4900085F02276
:10007000D2DE22021872D202121AA1C290C296D205
:1000800080E4FBFD7F10121CD21206CE74A4F0D2C5
:10009000AFE4F53BF53CD296053CE53C7002053BF0
:1000A000B410F3E53BB427EEC296120026300209E5
:1000B0001219DB8E3E8F3F8006753E01753F00E5CD
:1000C0003F7004E53E640170409000CCE07007F59D
:1000D0003BF53C02028D053CE53C7002053BD394A8
:1000E00010E53B94274002D296D3E53C9430E53BA3
:1000F0009475500302028DE4F53BF53C9000CCF082
:100100009000CBF0C29602028DE4F53BF53C9000E6
:10011000CCE014602A14700302025F147003020220
:100120001D1470030202332404600302028DE53FB4
:1001300064AA600302028D9000CC04F002028DE5F7
:100140003F9000CBF0A37402F0E53F120C3902059A
:10015000A00173A10185A501A9A601BDA701C6A89B
:1001600001E2A901C9B001D2B1019AC0028DFF001C
:100170000002141206879000A87401F0E490007544
:10018000F07FA1806E12005E9000CC7404F0753D8B
:1001900008E4F54175400902028D9000CC7404F02A
:1001A000E4F54175400202028DE49000A8F0900051
:1001B00075F07FA612071174A6F002028D1206CE0A
:1001C00074A4F002028D753D089000CC7403F00217
:1001D000028D9000757401F07FB1120711EFF002EB
:1001E000028D1206879000A8E0F53AE4F0900075C1
:1001F000F07FA912199E90007CEFF07D307C751283
:10020000070002028D1206EE90007CEFF0E49000F1
:10021000CCF08079E49000CBF0A3F08070E4F5415D
:10022000E53FF540E540D394009000CC402C7404A9
:10023000F0805A74042541F582E43400F583E53FEB
:10024000F00541E541B540059000CC800DE541C386
:10025000947040397540709000CC7402F0802EE5A7
:100260003F645570289000CCF0C2029000CBE0248F
:1002700060601824FC600F24FE600B14600824F6F4
:100280006004241070077FA0121C9FD2029000CB44
:10029000E0120C3902B6A102E0A402F2A503DAA62C
:1002A00003F6A805C0A905FDB00670B103A6C003FA
:1002B000C8FF000000AA900084E030E70F7DC87CF2
:1002C000001206B77FA31219150205DA121CE340CB
:1002D000030200AA7DE87C031206B77FA20205F59F
:1002E000900084E020E7030200AA7FA412191502FF
:1002F00003EE9000CCE060030200AA900085E024A9
:10030000FC6070240460030200AA153D900008E020
:10031000FEA3E0FF7C007D64120C5FC006C00712E4
:10032000155AD007D006120BA78F4B900006E0FE9F
:10033000A3E0FF8E4CF54D7C007D64120C5FC0067F
:10034000C00712155AD007D006120BA78F4E754F53
:1003500018900008E0FAA3E0FB900004E0FCA3E0A2
:10036000FDA3E0FEA3E0FF12173D9000747406F0B9
:100370000204B97F0112002E12158060030200AA48
:10038000E53D601A7F0112002EEF12153012157430
:1003900050030205B81206E2121D150205B8120636
:1003A000EE7FA00205F59000CCE060030200AA9069
:1003B0000004E0FCA3E0FD120700D296121D15C256
:1003C000967FA0121C9F800AE4FF121C9FE49000FD
:1003D000CCF0D2021206F70200AA900084E020E7D7
:1003E000030200AA547FF543FD7FA6121415E49082
:1003F0000084F00200AA9000CCE060030200AA9002
:100400000085E024FC7003020569240460030200F7
:10041000AA900004E0FF2480600804700DE4F51D3C
:100420008003751D017542FF800F12002E8F42E57B
:1004300042F46005121580F51D153D12005EE51DA4
:1004400014607C0460030200AA900004E0647F70E2
:1004500024A31215A1A3E0FAA3E0FBA3E0F54BA3AC
:10046000E0F54CA3E0F54DA3E0F54EA3E01207083C
:10047000740CF0803BE542F4603112152EF5828E4B
:1004800083121591740593FA740693FB740993F51E
:100490004B740793F54C740893F54D740A93F54E1D
:1004A000740B931207087401F08005E49000CBF000
:1004B0009000CBE070030200AA121BD70200AA90A2
:1004C0000004E06480704E900074740CF090000B97
:1004D000E0FF7E00900009E0FCA3E0FD120A47C0A7
:1004E00006C00790000C1215ADC007C00690000DA5
:1004F0001215ADAA06AB0790000E1215AD8E4F8FE8
:10050000508A4D8B4ED04BD04C9000051215A190C7
:10051000000FE08048E542F4700302062F12152E0A
:100520009000747401F08544828E83740612154B1A
:10053000C006C007740712154BC007C00674081226
:10054000154BAA06AB07740912154B8E4F8F508AB4
:100550004D8B4ED04BD04C121591740A93F551D05F
:1005600003D0021217B70200AAE53D70101206F779
:100570007FA0121C9FD202E4F51D0200AAE51D1403
:10058000601B0460030200AAE542F4600E12152EFF
:1005900012157440061206E2121D15801BE542F486
:1005A000601612152E121574400EEFFD7C007F01AF
:1005B0007E00121AF4121D15E4900085F00200AAC4
:1005C000900084E0FF30E71C547FF5437DC87C0039
:1005D00012069AAD437FAB121415E4900084F0D25A
:1005E000020200AA121CE340030200AA7DE87C0379
:1005F00012069A7FAA121C9FD2020200AA9000043F
:10060000E025E0F5439000CCE060030200AA9000F2
:1006100085E0700512005E800B900085E064046048
:10062000030200AAE5436007E540C394045008E4D0
:100630009000CBF00200AA74062543F9E43400755B
:100640004801F549894AC3E540954324FEF54B909E
:100650000005E0F54C7B017A0079061216397FA07F
:10066000121C9F90007CE0FF12199ED2020200AA89
:10067000900084E020E7030200AA7FB11216BBE4D9
:10068000900084F00200AA7D327C007F017E00127F
:100690001AF4D296121D15C296227F017E00121AFC
:1006A000F4D296121D15C2969000A8E53AF090007B
:1006B0007CE0FF12199E227F017E00121AF4D2966E
:1006C000121D15C29690007CE0FF12199E22900028
:1006D000A87401F0E4900075F07FA412199E9000B8
:1006E0007C22EFFD7C007F017E00121AF422900034
:1006F0007CE0FF12199E2290007CE0FF12199E22DE
:100700007F017E00121AF422F54F12173D900074FB
:100710002212199E90007C22AFE9AEEA120DB68E2D
:10072000088F092093030209A285080A85090BC3D3
:10073000E509950DF511E508950CF510900075E0AB
:1007400014700302099C0460030209C3900085E051
:100750001460650460030209C3900084E060030232
:1007600009C39000A8E0FFAB11AA10AD0FAC0E12A8
:1007700010558F1AE51A648070030209C390007F38
:10078000120E6B900002E510F0A3E511120DC1E40A
:10079000900074F0900077F090007EF0F51BF51C4F
:1007A000FE7F70FD7B017A007904120C8CE49000CE
:1007B0007DF090008504F022E51A120D998E23F544
:1007C00024E51A120DFA70030208D004600302092E
:1007D000C3900004120CBBFFD39400400B90007E2A
:1007E000E09F5004E004F022120E13AE10AF11ABE4
:1007F00007AA06E50F2BFFE50E3AFEE433FDE433CE
:10080000FCC004A905AA06AB07AE0EAF0F120E730B
:10081000D000120BA78F22120D80FD120003401989
:1008200090000A120D83FDAF22120003400B120C40
:10083000B8120E646003020954120D80FDAF22123B
:1008400000035009120CB8C3120E444013D3E50F35
:10085000951CE50E951B402B120CB8120E647023EC
:10086000900086120E6B120CC4C083C082120E0B55
:100870007401A806088002C333D8FC4FD082D0830D
:10088000F0801790007A120E6BC290D3951CE50E83
:10089000951B4006850E1B850F1C900088E0700D8F
:1008A000120CC6120D78FF121C34120DBD120CB8BA
:1008B000120E6460030209C3121CDB5005E49000B1
:1008C00083F0120D7570030209941209D70209947E
:1008D000120CB8FF7E00900004120AE4FDACF01286
:1008E0000A47120DE18E258F26120E13E4850F158F
:1008F000850E14F513F512851119851018F517F5E5
:1009000016900006120CF81209C4500F900007123E
:100910000CF21209F55004C2908043900008120CAA
:10092000F21209C4502EAA23A9247BFF90000912B9
:100930000CF81209F5501D120CC4C083C082120EAF
:100940000B7401A806088002C333D8FC4FD082D0B4
:1009500083F0800AE4900084F0C290A3F02290001B
:1009600088E0700D120CC6120D78FF121C34120DA7
:10097000BDAA23A9247BFF90000A120A08120E6464
:100980007041121CDB5005E4900083F0120D75607D
:10099000031209D7C290E4900085F022AF11AE1087
:1009A000801E85080C85090DC3E509950BF50FE53B
:1009B00008950AF50E900075E0147007AF0FAE0EA3
:1009C000120E9B22E5159FFFE5149EFE121C93C399
:1009D000EF9526EE952522121CEB7D207C037F01EE
:1009E0007E00121ACB90007DE0900083F0A3E51A00
:1009F000F04480F022E5199FFFE5189EFE121C933B
:100A0000C3EF9526EE952522BB010CE58229F582E0
:100A1000E5833AF583E0225006E92582F8E622BB19
:100A2000FE06E92582F8E222E58229F582E5833A8D
:100A3000F583E49322BB010689828A83F022500267
:100A4000F722BBFE01F322EF8DF0A4A8F0CF8CF0CB
:100A5000A428CE8DF0A42EFE22BC000BBE0029EFF0
:100A60008DF084FFADF022E4CCF875F008EF2FFF95
:100A7000EE33FEEC33FCEE9DEC984005FCEE9DFE63
:100A80000FD5F0E9E4CEFD22EDF8F5F0EE8420D2AA
:100A90001CFEADF075F008EF2FFFED33FD40079819
:100AA0005006D5F0F222C398FD0FD5F0EA22C2D548
:100AB000EC30E709B2D5E4C39DFDE49CFCEE30E7E1
:100AC00015B2D5E4C39FFFE49EFE120A59C3E49D0C
:100AD000FDE49CFC8003120A5930D507C3E49FFF54
:100AE000E49EFE22BB0110E58229F582E5833AF5FA
:100AF00083E0F5F0A3E0225009E92582F886F008AA
:100B0000E622BBFE0AE92582F8E2F5F008E222E5DA
:100B1000832AF583E993F5F0A3E99322E88FF0A403
:100B2000CC8BF0A42CFCE98EF0A42CFC8AF0EDA474
:100B30002CFCEA8EF0A4CDA8F08BF0A42DCC3825A7
:100B4000F0FDE98FF0A42CCD35F0FCEB8EF0A4FE87
:100B5000A9F0EB8FF0A4CFC5F02ECD39FEE43CFC1C
:100B6000EAA42DCE35F0FDE43CFC2275F008758238
:100B700000EF2FFFEE33FECD33CDCC33CCC5823327
:100B8000C5829BED9AEC99E58298400CF582EE9B2C
:100B9000FEED9AFDEC99FC0FD5F0D6E4CEFBE4CD4A
:100BA000FAE4CCF9A88222B800C1B90059BA002DE4
:100BB000EC8BF084CFCECDFCE5F0CBF97818EF2F9D
:100BC000FFEE33FEED33FDEC33FCEB33FB10D703CC
:100BD000994004EB99FB0FD8E5E4F9FA227818EF75
:100BE0002FFFEE33FEED33FDEC33FCC933C910D7D4
:100BF000059BE99A4007EC9BFCE99AF90FD8E0E4E1
:100C0000C9FAE4CCFB2275F010EF2FFFEE33FEEDB6
:100C100033FDCC33CCC833C810D7079BEC9AE89986
:100C2000400AED9BFDEC9AFCE899F80FD5F0DAE468
:100C3000CDFBE4CCFAE4C8F922D083D082F8E49367
:100C40007012740193700DA3A393F8740193F5824D
:100C50008883E4737402936860EFA3A3A380DFEC3E
:100C60008EF0A4CCC5F0CCCDF8EFA4CEC5F02DFD10
:100C7000E43CFCE8A42EC8C5F03DFDE43CFCEFA438
:100C8000FFE5F028FEE43DFDE43CFC22EF4E60125F
:100C9000EF60010EEDBB010B89828A83F0A3DFFCBC
:100CA000DEFA2289F05007F709DFFCA9F022BBFE2B
:100CB000FCF309DFFCA9F02290000BAA23A9247BF6
:100CC000FF020A08D290900077E024FFFFE434FF8F
:100CD000FE7C007D08120AAE74042FF58274003E7B
:100CE000F58322FF900074E02404F582E43400F5DB
:100CF0008322AA23A9247BFF120A08FD7C0090000E
:100D000004120AE4FFAEF0120A47C322120BA7AB8B
:100D100007AA06E4F9F87F407E427D0FFC120BA77C
:100D2000E47BFFFAF9F8120B1CA804A905AA06AB8C
:100D3000077F207ED77D757C01120BA7EFF404227C
:100D4000E53725E0248AF582E43400F58322AE2AD3
:100D5000AF2B7C007D1F120A598E2E8F2F7C007DB9
:100D600005120A59C3E52F9FFDE52E9EFCD3E52908
:100D70009DE5289C22900083E0FF90007DE06F229B
:100D8000900009AA23A9247BFF020A0853DBFE5323
:100D9000DAFE53F7DF53F7BF2275F005A42414F5EC
:100DA00082E4341EF583E4740193FA740293AE0274
:100DB000227D64120A597C007D0A020A4790007D58
:100DC000EFF09000887408F022C3E5379FFDE53608
:100DD0009ED3FCE5339DE5329C2275F0FFA4FFAE67
:100DE000F07C007D64020A59AA2EA92F7BFF900097
:100DF00002120AE4F53785F0362275F005A42413B3
:100E0000F582E4341EF583E4931422E0FF90008819
:100E1000E0FE22900088E014F0900077E004F022D9
:100E2000E52F2FFFE52E3EFEC3E5299FE5289E22F4
:100E3000AB48AA49A94A854D82758300020A0890E9
:100E40000081E0D3FF900077E09F22900078E527B3
:100E5000F0A3E528F022852F82852E83E493FA748F
:100E60000193FB22FF900077E06F22E50EF0A3E5EF
:100E70000FF0227C007D64020C5F540F75F002A419
:100E8000F58285F083227B007A007929AF28AE278E
:100E900022D3E52B9494E52A9411228E278F289053
:100EA0000085E0146035147003020F802402600393
:100EB000021054C290900084E06003021054AF28E6
:100EC000AE27121C614003021054E4900001F0129E
:100ED0000E4B9000857401F0D29022900078E0FCD7
:100EE000A3E0FDAE047802CEC313CE13D8F92DFFD4
:100EF000EC3EFED3E5289FE5279E4009120E4BE409
:100F0000900001F022AF28AE271218C5501F9000A4
:100F100001E094004017E4900074F090008874049D
:100F2000F0E490007DF09000857402F022C3E52883
:100F30009464E52794005003020FE6120E86121106
:100F4000BE5020E529120D42E0FEA3E02528FFE572
:100F5000273EC313FEEF13FFE529120D42EEF0A367
:100F6000EFF022900001E0120D42120E4E900001AF
:100F7000E004F0E0D3940F5003021054E402104553
:100F8000B290AF28AE271218C5505E121CDB500578
:100F9000E4900083F0120D75604A121CEB7DF47C26
:100FA000017F017E00121ACB90007DE0900083F05B
:100FB000900088E07019120CE4C083C082E0FF90BA
:100FC0000001E0540FFEEF4ED082D083F0800E90EF
:100FD0000001E0C454F0440F120CE3EFF0900084E1
:100FE000E04480F0C290E48067120E861214A35091
:100FF00057900088E0B40410E529C454F0120CE3C3
:10100000EFF0E4900088F022900074E0FF120CE80A
:10101000E0FEE529540FFDEE4DF074042F120CEAAA
:10102000120D78FF121C34EFF0900074E004F09081
:1010300000887404F0900074E0D394704016121C81
:10104000EBE4900001F08008121CEBE4900001F04A
:10105000900085F0228F278C288D298A2A8B2B756A
:101060002C80E5277071E4F52D7F0112002EEF65CD
:101070002D701B120E914054E52B9450E52A944696
:10108000504A120D4E4045120E2050408073E52DFF
:10109000120D998E2EF52FE52D120DFA60180470A1
:1010A0002B120E56C002C003120DE8D003D002125C
:1010B000110750188013120E56C002C003120DE81B
:1010C000D003D0021211075003852D2C052DE52DDC
:1010D000C394074094802DAF2712002E8F2D7F01DF
:1010E00012002EEF652D701C120E914017E52B9407
:1010F00050E52A9446500D120D4E4008120E205015
:1011000003852D2CAF2C22AD2BAC2AAF29AE281293
:101110001113228E308F318C328D33C2007C007DD2
:1011200064AF03AE02120DB38F828E83AE36AF373B
:10113000120DB1D3E58294F4E583940140050C7D52
:10114000F48004AC83AD828C838D82D3EF94F4EE73
:10115000940140067C017DF48004AC06AD07AE042A
:10116000AF05D3EB9400EA94004038EB9582FDEA9A
:101170009583FCD3E5319DE5309C403FEB2582FD16
:10118000EA3583FCC3E5319DE5309C502E120DC934
:101190004029E5372FFDE5363EC3120DD2501CD253
:1011A000008018120DC94013E5372FFFE5363EFECB
:1011B000C3E5339FE5329E5002D200A200228E2A60
:1011C0008F2B8B2C8A2D892EC2001214A35005D28E
:1011D00000021261E52BAE2A7803CEC313CE13D8DA
:1011E000F9FDAC06E52BAE2A7802CEC313CE13D898
:1011F000F92DFDEE3CFCE52AC4F854F0C868FEE584
:101200002BC4540F482DF531EC3EF530E4F52F900A
:101210000001E0FFE52FC39F5047C3E52B9531FF49
:10122000E52A9530FEE52F120D42E0FCA3E0FDD348
:101230009FEC9E4028E52B2531FFE52A3530FEC383
:10124000ED9FEC9E5017E52E452D452C600BAB2CE9
:10125000AA2DA92EE52F120A35D2008004052F8071
:10126000AEA200224200C700004200C300004200BC
:10127000C900004200C500004100CC004100CB0085
:10128000011D0041008400410085004100A800418B
:1012900000750041007C0041007656410089AB4159
:1012A0000000004100820042007F00004200020076
:1012B00000420086000042007A00004100810041A7
:1012C0000088004100770041007E00410074004129
:1012D00000830041007D00410001004100C0004149
:1012E00000C1004100BE004100BF004100C20041FA
:1012F00000BD00C10300C0E0C0F0C083C082C0D008
:1013000075D000C000C001C002C003C004C005C049
:1013100006C007E5985403F55AF45298E55A30E0B0
:1013200017121D309000C0121A39EFF09000C0E083
:1013300004F0E0B41402E4F0E55A30E12E9000C26B
:10134000E0D39400401A9000BFE0245BF8E6FF125F
:101350001D2D9000BFE004F09000C2E014F0800268
:10136000D2039000BFE0B42002E4F0D007D006D052
:1013700005D004D003D002D001D000D0D0D082D08C
:1013800083D0F0D0E032121D36787FE4F6D8FD75B8
:10139000817A0213D0020076E493A3F8E493A34089
:1013A00003F68001F208DFF48029E493A3F85407E0
:1013B000240CC8C333C4540F4420C8834004F456DB
:1013C000800146F6DFE4800B010204081020408013
:1013D000901264E47E019360BCA3FF543F30E509A2
:1013E000541FFEE493A360010ECF54C025E060A813
:1013F00040B8E493A3FAE493A3F8E493A3C8C582A6
:10140000C8CAC583CAF0A3C8C582C8CAC583CADF13
:10141000E9DEE780BE8F458D46E4FEFDF547121AF2
:10142000262492F582E4341EF583740193FA740243
:10143000938A48F5497FAA121B97AF45121A2324B5
:1014400091F582E4341EF583E49314600E04701960
:10145000AA48A9497BFF90000B8009AA48A9497BAB
:10146000FF90000A120A08F547EEC395475007742B
:10147000082EFE0D80F3ED04FF121A232490F5824E
:10148000E4341EF583E493FF121B97E4FEEEC39D44
:10149000500974042E121A110E80F27F55121B97F8
:1014A000021D2A8E328F338B348A358936C201E48D
:1014B000F537900001E0FFE537C39F506E120D40F5
:1014C000E0FCA3E0FDAE047803CEC313CE13D8F93D
:1014D000FBAA06EDAE047802CEC313CE13D8F92BC7
:1014E000F539EE3AF538120D40E0FEA3E0FFC39562
:1014F00039FDEE9538FCC3ED9533EC95325028E577
:10150000392FFFE5383EFEC3E5339FE5329E501785
:10151000E53645354534600BAB34AA35A936E53799
:10152000120A35D201800405378087A20122E542E4
:1015300075F005A42496F582E4341DF583740193B7
:10154000FA740293AE028E43F5442293FF7E007438
:101550000493FC740593FD020A47900006E0FEA385
:10156000E0FF900009E02FFF900008E03EAB07FA93
:10157000E4F9F822F5828E83740C93FFD394002251
:10158000EF75F005A42495F582E4341DF583E4930A
:1015900022E493FE740193FF740293FC740393FDA1
:1015A00022E0FEA3E0FFA3E0FCA3E0FD22E0FF7E3B
:1015B00000020A47C0E0C0F0C083C082C0D075D02E
:1015C00000C000C001C002C003C004C005C006C006
:1015D00007E5D85487F521F452D8E5F730E508E55A
:1015E000F730E603121A4453F7DFE52130E708E548
:1015F000D930E003121D37E52130E008E5DA30E0AC
:1016000003121B44E52130E108E5DB30E00312075B
:1016100018E52130E208E5DC30E003121D38D00780
:10162000D006D005D004D003D002D001D000D0D055
:10163000D082D083D0F0D0E0328B458A46894712E1
:101640000D8C53E2FDE4F54DE54DC3954B504FAB8A
:1016500045AA46A947C003C002C001120E30C412F9
:101660000E7AD001D002D003120AE4F54F85F04E75
:10167000D2801216ADAB45AA46A947C003C002C02E
:1016800001120E30120E7AD001D002D003120AE4F9
:10169000F54F85F04EC2801216AD054D80AAB2906E
:1016A000AF4C154CEF709E43E202C29022FDAC4E4F
:1016B0007F0A7E00121A75121D1522AE07E4F54549
:1016C000121B90900001E004FF121B971217369036
:1016D0000001E0FFE545C39F5012121A2D121A16A1
:1016E000121A2DF583121A1D054580E3900078E04B
:1016F000FF121B97900078121A1D121736E4F54559
:10170000900074E02401FFE433FEC3E5459FEE64DE
:1017100080F8748098501774042545121A110545F5
:10172000E545541F70DA121D2A121D2380D27F5501
:10173000121B97021D2A121D2A121D23228E458F6D
:10174000468C478D48AE02AF03120E73C007AF4BF5
:10175000AB07E4FAF9F8D007120D0C900000F0AED8
:101760004CAF4D120E73C007AF4EAB07E4FAF9F859
:10177000D007120D0C900082F0E54B120DDA9000AC
:1017800076EFF0E54E120DDA900089EFF090007FD1
:10179000E545F0A3E546F0900002E547F0A3E548F3
:1017A000F0900081E54FF043DA0153F7DF43F74053
:1017B00053DBFE75F9FF228A498B4A755380120D5F
:1017C0008C53E2FD90007FEEF0A3EFF0900002EC6E
:1017D000F0A3EDF0121B1DE4F552E552C3955150F4
:1017E00032120CE4E05553600AAD50AC4FAF4EAE30
:1017F0004D8008AD4CAC4BAF4AAE49121BB3E5531C
:10180000C313F5537009900074E004F0755380051C
:101810005280C743E202C2909000857404F022C057
:10182000E0C083C082C0D075D000C004C005C0062F
:10183000C00753C87F9000C7E0FEA3E0FF4E7003CF
:1018400053C8FB9000C312199350099000C7E4F0ED
:10185000A3F0800DC39000C8E09DF09000C7E09C0D
:10186000F0D007D006D005D004D0D0D082D083D01D
:10187000E032C0E0C083C082C0D075D000C004C0D8
:1018800005C006C00753917F9000C9E0FEA3E0FFAA
:101890004E70035391FB9000C512199350099000AC
:1018A000C9E4F0A3F0800DC39000CAE09DF0900061
:1018B000C9E09CF0D007D006D005D004D0D0D082AB
:1018C000D083D0E032AB07AA06900078E0FEA3E018
:1018D000FF7C00120DB1D3EF94F4EE940140050C9F
:1018E0007DF48004AC06AD07AE04AF05C39000796B
:1018F000E09FFD900078E09EFCC3ED9BEC9A5013B6
:10190000A3E02FFF900078E03EFEC3EB9FEA9E50DD
:10191000028001C322AE07E4FDF545121B90900042
:1019200002E0FF121B97900002121A1D90007AE04D
:10193000FF121B9790007A121A1D900086E0FF128A
:101940001B97900086121A1D74042D121A110DBDDA
:1019500003F67F55121B97021D2AAB07AA06E4F96E
:10196000F87F407E427D0FFC120BA7A804A905AAB0
:1019700006AB077F207ED77D757C01120BA7C3E4E1
:101980009FFFE49EFE22AB07AA06E4F9F87FE87EFB
:1019900003FD22E0FCA3E0FDC3EF9DEE9C228F45FA
:1019A00090007CE0F5467F0B121D3343DB01120DE6
:1019B0008F1200707D0A7C007F017E00121AF412E3
:1019C0001D1543E202E4900085F0900084F0900041
:1019D000CBE545F090007CF0AF46229000C0E0FFE0
:1019E0009000BEE0B507057E017F00229000BE1288
:1019F0001A39E0FD7C009000BEE004F0E0B414026F
:101A0000E4F09000BDE0FEEE4204E4F0AE04AF0569
:101A100022F582E43400F583E0FF021B97A3E0FF88
:101A2000021B97121B97E54675F005A422E5452594
:101A3000E0248AF582E4340022E024A9F582E4342B
:101A400000F58322120E3F4003021C16120CE41212
:101A50000E0BEFA806088002C313D8FC30E00B90F1
:101A60000000E0FF121D33D29022900082E0FF12AE
:101A70001D33C290228E568F578C588D5912195A89
:101A8000121C7BE55924BF9000CAF0E55834FF9042
:101A900000C9F09000C5E556F0A3E557F043910466
:101AA0002212002A121CF2121CF9121CAA121D1B6F
:101AB000121C4B121CC8121CB4121CBE121C871222
:101AC0001D00121D07121D1F021D0E8E2A8F2B8C4A
:101AD0002C8D2D121986121967121C6F9000C7E504
:101AE0002CF0A3E52DF09000C3E52AF0A3E52BF040
:101AF00043C804228E478F488C498D4A121986129A
:101B00001967121C7B9000C9E549F0A3E54AF090E3
:101B100000C5E547F0A3E548F043910422D290D2F6
:101B20008090007F121B37121D15C290C28090005A
:101B300002121B37021D15E0FCA3E0FD7F0A7E00A8
:101B4000121A7522900088E07008900074E0041268
:101B50000DC1120E19900088E014F0120E3F5003D0
:101B6000021B6953E2FDC28022120CE4120E0BEF3D
:101B7000A806088002C313D8FC30E00590007680E8
:101B800003900089E07D00FCE4FF121BF822AE0701
:101B90007FAA121B97AF06C2039000C1E0B42002D7
:101BA000E4F09000C1E0245BF8A607E004F0A3E0B5
:101BB00004F0228C548D55D280AD07AC067F0A7E8E
:101BC00000121A75121D15C280AD55AC547F0A7EE5
:101BD00000121A75021D15120DC2E014F090007764
:101BE0007401F09000857403F0121B6953E2FD123A
:101BF0001B1D43E202020070AB07AF04EB14600C44
:101C000014600E2402700E8DFB8FFC228DE98FEA8A
:101C1000228DEB8FEC22E4FDFCFF121BF8120D8FDE
:101C2000121D2753D87853E2FDC280C290900085E0
:101C30007404F0227E1DE4FDEF30E70625E06EFF20
:101C40008004EF25E0FF0DBD08EE22AF885388AF7A
:101C5000758CA0758DCBEF5440FEEF54104E42882A
:101C600022C3EF94ACEE940D4003D38001C322ADA8
:101C700007AC06ECF5CBAF058FCA22AD07AC06EC7E
:101C8000F593AF058F9222C2DE75D90575F9FF7500
:101C9000960122EE30E707C3E49FFFE49EFE221286
:101CA0001B8E7F55121B97021D2A75E34075E101BB
:101CB00075E20222E59154045391FB429122758E04
:101CC0005475892243885022E5C8540453C8FB4206
:101CD000C82253984FEB4F4DF59822E5C8C320E238
:101CE00001D322E591C320E201D32253C8FB53C89C
:101CF0007F2275A41175D4CE2275A54175D57722A2
:101D000053F77F75DA4A2253F77F75DB302275E689
:101D10009075A8B022E59120E2FB22E4F5A92243C8
:101D20009810223003FD22C2DE22D299228F9922FE
:101D3000AF99228F8C22222222019030700006401F
:101D400001904B19180012C005DC0002BC012C46A2
:101D50001E28080BB8232800044C01904B191800CA
:101D6000251C0BB80003840140461E1800000072B9
:101D7000D80702BC012C264040000BB81C52019031
:101D80000103030118460001A41B5800D2010202FE
:101D9000010C32000100FF1D390200FF1D46030047
:101DA000FF1D530400FF1D600500FF1D6D0601FFB0
:101DB0001D7A0701FF1D87019030700006400190D9
:101DC0004B19180012C005DC0002BC012C461E286D
:101DD000080BB8232800044C01904B191800251C4F
:101DE0000BB80003840140461E1800000072D8079B
:101DF00002BC012C264040000BB81C52019001038C
:101E0000030118460001A41B5800D2010202010C74
:101E100032000100FF1DB70200FF1DC40300FF1DBB
:101E2000D10400FF1DDE0500FF1DEB0601FF1DF8BC
:101E30000701FF1E050190307000064001904B190C
:101E4000180012C005DC0002BC012C461E28080B3D
:101E5000B8232800044C01904B191800251C0BB81E
:101E60000003840140461E1800000072D80702BC1F
:101E7000012C264040000BB81C52019001030301C5
:101E800018460001A41B5800D2010202010C3200C6
:101E90000100FF1E350200FF1E420300FF1E4F041B
:101EA00000FF1E5C0500FF1E690601FF1E7607018C
:031EB000FF1E838F
:00000001FF
